:100000000C9434000C947E010C9451000C9451001B
:100010000C9451000C9451000C9451000C9451001C
:100020000C9451000C9451000C9451000C9451000C
:100030000C9451000C9451000C9451000C945100FC
:100040000C9451000C9451000C9451000C945100EC
:100050000C9451000C9487020C9451000C94710282
:100060000C9451000C94510011241FBECFEFD8E026
:10007000DEBFCDBF11E0A0E0B1E0E6ECF9E002C0E8
:1000800005900D92A631B107D9F721E0A6E1B1E0C4
:1000900001C01D92AE31B207E1F70E94E4010C9459
:1000A000E1040C94000082E68093B80084E0809321
:1000B000BC001092B900089584EA8093BC0080913E
:1000C000BC008823E4F708958093BB0084E8809304
:1000D000BC008091BC008823E4F7089540E050E024
:1000E0000AC02F5F3F4F02C020E030E029373105C2
:1000F000C4F34F5F5F4F84179507B4F70895EBEB98
:10010000F0E080818260808384E88093BC008091ED
:10011000BC008823E4F781E090E00E946E00EBEBE6
:10012000F0E080818D7F808384E88093BC008091A3
:10013000BC008823E4F70895EBEBF0E090819E7F0C
:10014000908394E89093BC009091BC009923E4F7CD
:10015000EBEBF0E090819F70908394E89093BC006B
:100160009091BC009923E4F7EBEBF0E09081807F65
:10017000892B808384E88093BC008091BC00882315
:10018000E4F70E947F000895CF93C82FEBEBF0E0D7
:1001900080818E7F808384E88093BC008091BC0046
:1001A0008823E4F7EBEBF0E080818F70808384E8B4
:1001B0008093BC008091BC008823E4F7EBEBF0E077
:1001C00080819C2F907F892B808384E88093BC0062
:1001D0008091BC008823E4F70E947F00EBEBF0E005
:1001E00080818F70808384E88093BC008091BC0004
:1001F0008823E4F7EBEBF0E0208130E1C39FC001FE
:100200001124822B808384E88093BC008091BC0001
:100210008823E4F70E947F00CF91089580E30E9435
:100220009C0080E30E949C0080E20E949C0088E287
:100230000E94C4008CE00E94C40081E00E94C400BF
:1002400086E00E94C40080E80E94C4000895CF9315
:10025000C82FEBEBF0E080818160808384E880939D
:10026000BC008091BC008823E4F7EBEBF0E08081D8
:100270008F70808384E88093BC008091BC008823C9
:10028000E4F7EBEBF0E080819C2F907F892B80835B
:1002900084E88093BC008091BC008823E4F70E942E
:1002A0007F00EBEBF0E080818F70808384E88093A7
:1002B000BC008091BC008823E4F7EBEBF0E02081E8
:1002C00030E1C39FC0011124822B808384E8809396
:1002D000BC008091BC008823E4F70E947F00CF918E
:1002E0000895CF93DF93EC0103C021960E9427016C
:1002F00088818111FACFDF91CF9108951F920F92DB
:100300000FB60F9211242F933F938F939F9381E009
:1003100090E02091180130911901232B11F080E019
:1003200090E0909319018093180181E090E0209172
:10033000000130910101232B11F080E090E09093B7
:100340000101809300019F918F913F912F910F9018
:100350000FBE0F901F901895AC0180E006C0FB0106
:10036000E80FF11D90E390838F5F8430C0F3FB01B1
:1003700033969A01ADECBCEC0E94D2049695879519
:1003800096958795969587959C01220F331F880F28
:10039000991F880F991F880F991F820F931F9A0129
:1003A000281B390BC901805D80839A010E94D20409
:1003B000AC01569547955695479556954795319773
:1003C00041155105B1F6089591E094B984B1826068
:1003D00084B917B81AB88EEF88B92FEF2BB985B941
:1003E0002FEF3FEF3093870020938600E0E8F0E0A6
:1003F0008081806A8083808182608083E1E8F0E090
:1004000080818861808380818160808383E08093A4
:100410007F00E9E6F0E08081826080839DBB80E41C
:1004200080937C008FEE80937A0010927B00EEE741
:10043000F0E080818160808378940E9453000E9464
:100440005C0080E70E9464000E940E018091180108
:1004500090911901019799F588E080BF80E80E948A
:10046000C40082E091E00E94710183EC0E94C4000C
:100470006AE171E080911601909117010E94AC0130
:100480008AE191E00E94710187EC0E94C4008FE034
:1004900091E00E947101809116019091170184975B
:1004A000039738F080E090E490938900809388006F
:1004B00006C080E090EC9093890080938800809142
:1004C000000190910101019709F6109289001092A4
:1004D000880010BE85B18E7F85B981E00E94C4007E
:1004E000B5CF1F920F920FB60F9211248F9300B6C3
:1004F00005FE04C085B1816085B903C085B18E7FDA
:1005000085B98F910F900FBE0F901F9018951F9275
:100510000F920FB60F9211242F933F934F935F9337
:100520006F937F938F939F93AF93BF93EF93FF93BB
:10053000609178007091790080E090E00E94D7038C
:1005400020E030E543EC57E40E94360320E030E23F
:1005500047EB54E40E94650420E030E040EF51E4B2
:100560000E94CA020E94A8037093170160931601AB
:10057000FF91EF91BF91AF919F918F917F916F917B
:100580005F914F913F912F910F900FBE0F901F9051
:1005900018955058BB27AA270E94E1020C942B04FF
:1005A0000E941D0438F00E94240420F039F49F3F7B
:1005B00019F426F40C941A040EF4E095E7FB0C945D
:1005C0001404E92F0E943C0458F3BA17620773071A
:1005D0008407950720F079F4A6F50C945E040EF4D8
:1005E000E0950B2EBA2FA02D0B01B90190010C0143
:1005F000CA01A0011124FF27591B99F0593F50F45B
:10060000503E68F11A16F040A22F232F342F4427B2
:10061000585FF3CF469537952795A795F0405395AA
:10062000C9F77EF41F16BA0B620B730B840BBAF07A
:100630009150A1F0FF0FBB1F661F771F881FC2F7E5
:100640000EC0BA0F621F731F841F48F487957795F9
:100650006795B795F7959E3F08F0B0CF9395880FB3
:1006600008F09927EE0F9795879508950E944A0301
:100670000C942B040E94240458F00E941D0440F0A6
:1006800029F45F3F29F00C94140451110C945F0479
:100690000C941A040E943C0468F39923B1F3552387
:1006A00091F3951B550BBB27AA2762177307840785
:1006B00038F09F5F5F4F220F331F441FAA1FA9F31B
:1006C00035D00E2E3AF0E0E832D091505040E69509
:1006D000001CCAF72BD0FE2F29D0660F771F881F6A
:1006E000BB1F261737074807AB07B0E809F0BB0B5D
:1006F000802DBF01FF2793585F4F3AF09E3F510571
:1007000078F00C9414040C945F045F3FE4F3983E7B
:10071000D4F3869577956795B795F7959F5FC9F759
:10072000880F911D9695879597F90895E1E0660FDA
:10073000771F881FBB1F621773078407BA0720F053
:10074000621B730B840BBA0BEE1F88F7E0950895BC
:100750000E94440488F09F5798F0B92F9927B75109
:10076000B0F0E1F0660F771F881F991F1AF0BA9555
:10077000C9F714C0B13091F00E945E04B1E0089551
:100780000C945E04672F782F8827B85F39F0B93F43
:10079000CCF3869577956795B395D9F73EF4909508
:1007A0008095709561957F4F8F4F9F4F0895E89486
:1007B00009C097FB3EF490958095709561957F4FA9
:1007C0008F4F9F4F9923A9F0F92F96E9BB27939557
:1007D000F695879577956795B795F111F8CFFAF467
:1007E000BB0F11F460FF1BC06F5F7F4F8F4F9F4F98
:1007F00016C0882311F096E911C0772321F09EE8F6
:10080000872F762F05C0662371F096E8862F70E05B
:1008100060E02AF09A95660F771F881FDAF7880F35
:100820009695879597F9089597F99F6780E870E006
:1008300060E008959FEF80EC089500240A94161656
:10084000170618060906089500240A9412161306BE
:10085000140605060895092E0394000C11F488234C
:1008600052F0BB0F40F4BF2B11F460FF04C06F5F68
:100870007F4F8F4F9F4F089557FD9058440F551F3E
:1008800059F05F3F71F04795880F97FB991F61F012
:100890009F3F79F087950895121613061406551F89
:1008A000F2CF4695F1DF08C0161617061806991FF5
:1008B000F1CF86957105610508940895E894BB27EA
:1008C00066277727CB0197F908950E9478040C9446
:1008D0002B040E941D0438F00E94240420F095236C
:1008E00011F00C9414040C941A0411240C945F0459
:1008F0000E943C0470F3959FC1F3950F50E0551F83
:10090000629FF001729FBB27F00DB11D639FAA2764
:10091000F00DB11DAA1F649F6627B00DA11D661FB3
:10092000829F2227B00DA11D621F739FB00DA11DD4
:10093000621F839FA00D611D221F749F3327A00D8E
:10094000611D231F849F600D211D822F762F6A2F2A
:1009500011249F5750409AF0F1F088234AF0EE0F8F
:10096000FF1FBB1F661F771F881F91505040A9F7BC
:100970009E3F510580F00C9414040C945F045F3F7B
:10098000E4F3983ED4F3869577956795B795F795F8
:10099000E7959F5FC1F7FE2B880F911D9695879570
:1009A00097F90895A29FB001B39FC001A39F700D56
:1009B000811D1124911DB29F700D811D1124911D67
:0609C0000895F894FFCF3A
:1009C600010054656D70657261747572613A00203C
:0609D60047726175730019
:00000001FF
